:020000040800F2
:10000000802100209D010008A3170008CB140008E0
:10001000A1170008A9020008651C000800000000E4
:10002000000000000000000000000000AF01000818
:10003000F102000800000000B3010008A517000845
:10004000B7010008B7010008B7010008B7010008B0
:10005000B7010008B7010008B7010008B7010008A0
:10006000B7010008B7010008B7010008B701000890
:10007000AD020008B7010008B7010008B701000889
:10008000B7010008B7010008B7010008B701000870
:10009000B7010008B7010008B7010008B701000860
:1000A000B7010008B7010008B7010008B701000850
:1000B000B7010008B7010008B7010008B701000840
:1000C000B7010008B7010008B7010008B701000830
:1000D000B7010008B7010008B7010008B701000820
:1000E000B7010008B7010008B7010008B701000810
:1000F000B7010008B7010008B7010008B701000800
:10010000B7010008B7010008B7010008B7010008EF
:10011000B7010008B7010008B7010008B7010008DF
:10012000B7010008B7010008B7010008B7010008CF
:10013000B7010008B7010008B7010008B7010008BF
:10014000B7010008B7010008B7010008B7010008AF
:10015000B7010008B7010008B7010008B70100089F
:10016000B7010008B7010008B7010008B70100088F
:10017000B7010008B7010008B7010008000000003F
:10018000B7010008B7010008DFF80CD000F07AF8DA
:1001900000480047691C000880210020064880476D
:1001A00006480047FEE7FEE7FEE7FEE7FEE7FEE75C
:1001B000FEE7FEE7FEE7FEE73518000889010008C4
:1001C0002DE9F05F0546002092469B46884606468C
:1001D000814640241BE0284641464746224600F01F
:1001E00041F853465A46C01A914110D31146184659
:1001F000224600F028F82D1A67EB01084F462246E8
:100200000120002100F01FF817EB00094E41201ECD
:10021000A4F10104DFDC484631462A464346BDE8E6
:10022000F09FD2B201E000F8012B491EFBD27047CB
:100230000022F6E710B513460A4604461946FFF7B2
:10024000F0FF204610BD202A04DB203A00FA02F11C
:10025000002070479140C2F1200320FA03F31943B4
:1002600090407047202A04DB203A21FA02F0002156
:10027000704721FA02F3D040C2F1200291400843B6
:1002800019467047064C074D06E0E06840F0010350
:1002900094E8070098471034AC42F6D3FFF778FF94
:1002A000E01C0008001D0008FEE70000014800F007
:1002B00021B800BF5C00002001686FF00F02182316
:1002C00052FA81F2B2FBF3FC07A35F2A13F80CC0C9
:1002D00040F2FF3321EA030188BF41F00401C0E985
:1002E000161C0846704700BF0006101600061016C0
:1002F00070477047F8B504460020082100905C481C
:100300000568D4E916603768814039420DD022680B
:10031000136813F0040F08D0136823F0040313606C
:10032000B160616D41F00101616501218140394297
:1003300009D02268526912F0800F1FBFB160616D51
:1003400041F00201616504218140394209D02268EF
:10035000126812F0020F1FBFB160616D41F004011D
:10036000616510218140394219D02068026812F07D
:10037000080F14D0B1600268016812F4802F06D112
:10038000C9055EBF016821F00801016001E00803B2
:1003900001D4216C00E0A16C09B120468847E16DD1
:1003A000202000FA01F23A423CD02068036813F0A2
:1003B000100F37D0B26094F835300268052B19D190
:1003C00022F016020260426922F080024261226C31
:1003D0000AB9A26C1AB1026822F0080202603F203A
:1003E0008840B060002084F83400012084F8350093
:1003F000216D39E0016852030CD4C9050ED401689F
:1004000021F010010160002084F83400012084F8FC
:10041000350003E0080301D4616C00E0E16B09B131
:1004200020468847606D10B3606D10F0010F1AD040
:1004300005214FF4165084F83510B5FBF0F0216813
:100440000A6822F001020A60009A01328242009298
:1004500003D80A6812F0010FF6D1002084F83400A6
:10046000012084F83500E16C09B120468847F8BDC9
:100470000C0000202DE9F041044600F0BDF90546CE
:10048000002C4DD0002084F83400022084F8350080
:100490002068016821F00101016005E000F0ACF97D
:1004A000401B05283ED82068016811F0010FF5D1E6
:1004B00001683A4AD4E9013504F10C0801EA020C5A
:1004C00098E8C201D4E9072E43EA0C032B431943F1
:1004D0003143394341EA08011143626A41EA0E039C
:1004E000042A23D1D4E90B1719433943016050F88A
:1004F000141FD4E90A5E21F00701BEF1000F41EAA2
:10050000020145EA010C18D0B8F5005F26D0B8F119
:10051000000F38D1022D39D0012D2ED0B5B30CE00B
:10052000012218E003232021032222E0036050F877
:10053000141F21F0070141EA020CC0F800C0204658
:10054000FFF7BAFEE16D3F22012302FA01F100221A
:10055000816000210DE0D0B2BDE8F081032DECD820
:100560000123402102EB85060122DFE805F0020F9E
:100570000206616584F83530EDE7AEF1C071B1FA7D
:1005800081F1490904E0032D04D3D6D1CEF30061F3
:100590000029D2D0012340210122EAE73F8010F058
:1005A00010B590F834C0BCF1010F46D04FF0010CEB
:1005B000D0F858E080F834C090F835C0BCF1010F95
:1005C00038D14FF0020C80F835C04FF0000CC0F865
:1005D00054C0D0F800C0DCF8004024F48024CCF8EB
:1005E0000040CCF804308368402B0B4608BF13460C
:1005F000CCF8083008BF0A46CCF80C203F22C16D69
:1006000002FA01F1CEF80810DCF8001041F01601F2
:10061000CCF80010006C28B1DCF8000040F00800B5
:10062000CCF80000DCF8000040F00100CCF800003D
:10063000002003E0002180F834100220C0B210BD79
:1006400070B505466E1C00F0D7F804461EB18A4806
:100650000078054401E04FF0FF3500F0CDF8001BB5
:10066000A842FAD370BD00BF2DE9F84F5B4A4FF0A6
:1006700008094FF0010A4FF0000B4FF0000E002761
:10068000904208BF4FF00709554A02444FEAB2238F
:10069000072B38BF4FEAB229BEF1200F08BFBDE8D3
:1006A000F88F0A680AFA07F4224200F08A804A6842
:1006B000122A00F28C800AFA02F313F0061F00F0EF
:1006C00086808668D1F80CC0032303FA0EF30CFA77
:1006D0000EF59E436FEA030C2E438660C2F30016AC
:1006E0004568BE40A5432E4346607E00C5688B68C2
:1006F00005EA0C05B3402B43C36042F01003122BF4
:1007000012D1384D0BF01C020F23934005EA570518
:100710000544D5F8208028EA03080B6903FA02F2A1
:1007200042EA08022A624A68056802F0030312F0EE
:10073000805F03FA06F305EA0C0643EA060303604A
:100740003FD000220092284A136843F4804313608C
:1007500027F00303126802F480420092234A009EAD
:10076000234D0BF00C0603EB02080F2358F805C0CD
:10077000B34009FA06F62CEA0303334348F8053080
:1007800013684E68A34316F4803F18BF234316F442
:10079000003F1360536823EA040318BF234316F491
:1007A000801F5360936823EA040318BF234316F4A1
:1007B000001F93600F4A136823EA040318BF234302
:1007C00013600BF1040B0EF1020E013764E70323F3
:1007D000764603FA0EF36FEA030C87E7001C02402B
:1007E0000000FEBFFCFFFF7F44380240003C014098
:1007F00008FCFFFF0C3C01401F488068704700BFA9
:100800001D480178826811448160704780B50B48AB
:10081000016841F400710160016841F48061016088
:10082000016841F480710160032000F08FF800201E
:1008300000F006F800F022F8002080BD003C0240E5
:1008400070B50D4E04464FF47A713078B1FBF0F07C
:100850009B490968B1FBF0F000F018FB01250F2C53
:1008600008D838B94FF0FF3021460022002500F0AB
:1008700041F87460284670BD0000002082B000205E
:1008800001900B494A6842F480424A604A6802F487
:1008900080420192019A0090086840F08050086000
:1008A000086800F080500090009802B0704700BFC8
:1008B0004038024000280CDB00F01F0101224009F3
:1008C00002FA01F1034A42F82010BFF34F8FBFF341
:1008D0006F8F704780E100E0002808DB00F01F0107
:1008E0000122400902FA01F1014A42F82010704742
:1008F00000E100E0B0B5144C1A4D00F00F03B0F168
:10090000FF3FA3F104032B4403F10C03C8BF0319F9
:100910002868C0F30220051DC41E80F00700072DC3
:100920004FF0010538BF0024042828BF042005FA31
:1009300000F00138084005FA04F10F31A0401140E1
:10094000084300011870B0BD00E400E005494FF60F
:10095000FF030A681A4060F30A2203481043086044
:10096000704700BF0CED00E00000FA052DE9F041F2
:1009700004468846002C00F08480444FD7F80004D9
:1009800000F00F00404507D287F80084D7F8000434
:1009900000F00F00404574D1206810F0020F11D014
:1009A000410742BFB96841F4E051B960010742BF55
:1009B000B96841F46041B960B968A26821F0F001FA
:1009C0001143B960C0072BD06068811E022904D290
:1009D000396811F0007F0BD153E0012804D1396848
:1009E00011F4003F04D14CE0396811F0020F48D0F7
:1009F000B96821F003010843B860FFF7FDFE064621
:100A000041F28835B868616800F00C00B0EB810FE6
:100A100006D0FFF7F1FE801BA842F3D9032031E096
:100A2000D7F8000400F00F00404507D987F800848C
:100A3000D7F8000400F00F00404522D1206810F0E4
:100A4000040F05D0B968E26821F4E0511143B960A0
:100A5000000706D5B868216920F4604040EAC1006B
:100A6000B86000F033F8B968094AC1F30311515C6A
:100A7000C8401349086007480068FFF7E1FE0020FE
:100A800000E00120C0B2BDE8F08100BF00380240A4
:100A9000C61C00080400002009480B4A00680949E8
:100AA0000968C1F38221515CC84070470448064A76
:100AB000006804490968C1F34231515CC84070477D
:100AC0000C00002008380240D61C000810B5EC4C81
:100AD000606800F00C011248082904D0042904BF02
:100AE000104810BD10BD226820680E49002310F484
:100AF000800F02F03F0204BF42F20041C0F2F40155
:100B00002068C0F38810A1FB0001FFF759FB2168A2
:100B10000222C1F3014102EB4101B0FBF1F010BD33
:100B20000024F400001BB7002DE9F84F8246BAF10B
:100B3000000F00F05C819AF80000D04ED04FC00743
:100B40004AD0786800F00C00042807D1306810F40F
:100B5000003F41D0DAF80400F0BB48E1786800F0CB
:100B60000C00082803D1386810F4800FEED1DAF8B1
:100B70000480B8F5803F06D03068B8F5A02F13D1B7
:100B800040F480203060306840F480303060FFF7FF
:100B900033FE0546306810F4003F1DD1FFF72CFEF0
:100BA000401B6428F6D9C3E020F480303060306800
:100BB00020F480203060FFF71FFE0546B8F1000FDB
:100BC000E8D1306810F4003F06D0FFF715FE411B56
:100BD00003206429F5D90BE19AF80000A94C80079D
:100BE00031D5786810F00C0F1CD0786800F00C003C
:100BF000082804BF386810F4800F13D0DAF80C000E
:100C0000002800F0978001202060FFF7F5FD0546E1
:100C1000306810F0020F0ED1FFF7EEFD401B0228E6
:100C2000F6D985E0306810F0020F1CBFDAF80C002E
:100C3000012840F0DC803068DAF8101020F0F8006D
:100C400040EAC10030609AF80000000722D5DAF8C7
:100C5000140078B10120C4F8800EFFF7CDFD0546E1
:100C6000386F10F0020F15D1FFF7C6FD401B0228A8
:100C7000F6D95DE00020C4F8800EFFF7BDFD054603
:100C8000386F10F0020F05D0FFF7B6FD401B0228A9
:100C9000F6D94DE09AF80000A34640077CD5F86BE2
:100CA0004FF0000810F0805F0CD1CDF800804FF0BD
:100CB0000108F86B40F08050F863F86B00F080504A
:100CC000009000987048305810F4807F12D16E4820
:100CD000315841F480713150FFF78EFD05466A4866
:100CE000305810F4807F05D1FFF786FD401B0228A5
:100CF000F5D91DE0DAF80890B9F1010F06D0F86EC9
:100D0000B9F1050F27D140F00400F866F86E40F005
:100D10000100F866FFF770FD054641F28834F86E71
:100D200010F0020F31D1FFF767FD401BA042F6D94A
:100D300003205DE000202060FFF75EFD054630687F
:100D400010F0020F3FF47FAFFFF756FD411B032069
:100D50000229F4D94CE020F00100F866F86E20F08A
:100D60000400F866FFF748FD0546B9F1000FD4D13D
:100D700041F28839F86E10F0020F06D0FFF73CFD03
:100D8000411B03204945F5D932E0B8F1010F02BFFC
:100D9000F86B20F08050F863DAF81840002C6AD025
:100DA000786800F00C00082826D1012C1FD0386884
:100DB000DAF81C1000F480028A4218D1DAF8201008
:100DC00000F03F028A4212D1DAF8242047F6C071BF
:100DD000014091420BD1DAF8281000F440328A42E7
:100DE00005D1DAF82C1000F07060884243D0012061
:100DF000C0B201B0BDE8F08F0020CBF86000FFF773
:100E0000FBFC0546022C0BD15C46306810F0007FDD
:100E100011D0FFF7F1FC411B03200229F5D9E7E7C8
:100E2000306810F0007F26D0FFF7E6FC411B03205E
:100E30000229F5D9DCE70AF11C052FCD0843D903B7
:100E400040EA82104FF6FF72914340EA0560A1F537
:100E500080310843386001202066FFF7CDFC04464E
:100E6000306810F0007F06D1FFF7C6FC011B03209D
:100E70000229F5D9BCE70020BAE700BF00380240DC
:100E800004380240000047420038FEFF411E0020A7
:100E9000B0EB116F1CBF01207047044AF023516072
:100EA00003490B70072190601160704710E000E06B
:100EB00023ED00E090F83C20012A01D102211FE03F
:100EC000B0B501F10805D1E900CE3CCDC96923F4E4
:100ED0007C5322F470521A432EF4F0431A432CF43C
:100EE000E0431A4324F4C0431A432A4322F48042C5
:100EF000114302685164002180F83C10BDE8B04005
:100F0000C8B2704790F83C300222012B35D010B5A2
:100F1000012380F83C3080F83D200268D2F804E0DC
:100F2000D2F808C00C68B2F1804F2EF0700343EA8B
:100F300004035360BDE8104014D0114B9A421CBF0B
:100F4000104B9A420ED0104B9A421CBF0F4B9A4244
:100F500008D0A34B9A421CBF0D4B9A4202D09F4B24
:100F60009A4204D149682CF0800319439160012111
:100F7000002280F83D1080F83C20D0B2704700BFBE
:100F80000004004000080040000C00400018004031
:100F90000040014010B50446A4B194F83D0028B9C2
:100FA000002084F83C00204600F00EF80220211DAD
:100FB00084F83D00206800F04BFC012084F83D00DF
:100FC000002010BD012010BD82B001680F48834A87
:100FD00091420ED0824A914216D1002101910168BE
:100FE00041F001010160006800F0010001900198EA
:100FF0000AE000210091016841F0020101600068EF
:1010000000F002000090009802B07047443802409F
:1010100010B50446022094F83C20012A7ED001221B
:1010200084F83C2084F83D004FF6777220688446AF
:101030005CF8083F23EA0202CCF800200B6813B3E7
:10104000102B20D0202B18BF302B1CD0402B22D0AF
:10105000502B2ED0602B3AD0B3F5005F45D0702BCB
:1010600056D1D1E90102C968104340EA0120DCF8F9
:10107000001021F47F410843CCF80000DCF80000A8
:1010800040F0770042E0DCF8000020F077001843E1
:1010900040F007003AE04B68CA68194600F000FDCE
:1010A000D4F800C05CF8080F20F0770040F047004B
:1010B0002CE04B68CA68194600F0F2FCD4F800C076
:1010C0005CF8080F20F0770040F057001EE04B68F6
:1010D000CA68194600F0F5FCD4F800C05CF8080FA7
:1010E00020F0770040F0670010E0D1E90102C96804
:1010F000104340EA0120DCF8001021F47F4108434E
:10110000CCF80000DCF8000040F48040CCF800008F
:10111000012084F83D00002084F83C00C0B210BDDE
:101120002DE9F04186B0044601A81421FFF780F8AC
:101130002168294CF148294A91421AD0284A914203
:1011400046D100210091016841F0100101600121A8
:10115000006800F01000009000984FF4D440019017
:1011600002200290CDE90310059104F5006001A969
:101170002CE0002101AD02264FF001080327009169
:10118000026842F480720260026802F48072009287
:10119000009A0091016841F004010160294600684D
:1011A00000F0040000900098C020019004F5C050A9
:1011B0000296CDE903860597FFF756FA402001A96C
:1011C00081E8410120462946CDE90467FFF74CFA42
:1011D00006B0BDE8F08100BF0008024000040140F5
:1011E0000000014070B504460D46022094F83C1002
:1011F000012944D0012684F83C6084F83D004FEA80
:10120000B200032836D8DFE800F0020A1222206874
:10121000294600F083FB206850F8181F0EE0206874
:10122000294600F0ABFB206850F8181F16E0206834
:10123000294600F0D7FB206850F81C1F41F0080138
:101240000160016821F00401016029690FE0206854
:10125000294600F0FDFB206850F81C1F41F4006196
:101260000160016821F48061016029690902026856
:1012700011430160002084F83D6084F83C00C0B256
:1012800070BD10B50446A4B194F83D0028B9002003
:1012900084F83C00204600F00EF80220211D84F85E
:1012A0003D00206800F0D4FA012084F83D000020C1
:1012B00010BD012010BD7047704710B5044644B3FF
:1012C00094F8390028B9002084F83800204600F04E
:1012D00023F8242084F839002068C16821F40051E3
:1012E000C160204600F04CFC2068016921F4904167
:1012F0000161416921F02A014161C16841F4005155
:10130000C16000202021E06384F8391084F83A108D
:1013100010BD012010BD000070B586B0044601A8C4
:101320001421FEF785FF2168224881423FD1002623
:1013300000F5E03000968E490A6942F480220A6185
:101340000A6902F480220092009A00960A6842F02C
:1013500004020A60096801F00401009100994FF449
:10136000406101910221CDE9021603210491072178
:10137000059101A9FFF778F90F4D10484FF0006172
:101380004FF480624FF4807385E843004FF440309F
:10139000C5E90362C5E90566EB61C5E908062846AB
:1013A000FFF768F808B1FEF7A4FF6563AC6306B009
:1013B00070BD00BF004800405C0000202860024073
:1013C000BCB5044613460A4694F83A00202805D1D5
:1013D00032B12BB194F83800012803D102252CE05A
:1013E00001252AE001200025154984F83800222033
:1013F000A262A385E56384F83A00606BC16311497A
:1014000001641149C0E9131521680431FFF7C8F8D8
:10141000019520680168019141680191019984F862
:101420003850C16841F48071C160416941F00101E7
:101430004161416941F040014161E8B202B0B0BD93
:10144000411B0008791B0008E51A000810B51D4C67
:1014500020790F2818BF10BD2720FFF72BFA6079DD
:10146000A1794FF4806361F30A20C908E083E07931
:1014700060F34A112184217A627A890003EA822387
:1014800041EA9010510818434FF4C0636084A07A79
:1014900060F3CA110009A184E17A61F30A10E084C3
:1014A000207B627B400003EA422240EAD1101043D5
:1014B0002085207F00B1FEE72720BDE81040FFF720
:1014C0000BBA00BF100000207047FEE7E0B5002017
:1014D000002201902648016841F4001101600021BA
:1014E000006800F40010019001980C20FFF702FA48
:1014F0000C20BDE88C40FFF7EFB900BF3038024048
:1015000081B0002100911A48026842F00102026095
:10151000026802F001020092009A0091026842F013
:1015200004020260026802F004020092009A009134
:10153000026842F480720260026802F480720092D3
:10154000009A0091026842F080020260026802F094
:1015500080020092009A0091016841F01001016040
:10156000006800F010000090009801B0704700BFC4
:1015700030380240B0B596B009AC00251C21204699
:10158000CDE91455CDE91255CDE91055FEF750FEC1
:1015900001A82021FEF74CFE3448D949A72244F681
:1015A0001F6380E82600C0E90335C0E90555FFF751
:1015B000F1FC08B1FEF79DFE4FF4805012A9129085
:1015C0002A48FFF725FD08B1FEF793FE2748FFF7ED
:1015D00058FE08B1FEF78DFE002010A9CDE91000DD
:1015E0002248FFF78FFC08B1FEF783FE602014212C
:1015F00009904FF4FA600A9004F10800FEF718FE13
:101600001A4821460022FFF7EDFD08B1FEF771FEF2
:10161000164809A90422FFF7E5FD08B1FEF769FEA7
:10162000124809A90822FFF7DDFD08B1FEF761FEA7
:101630000E4809A90C22FFF7D5FD08B1FEF759FEA7
:1016400001AC14212046FEF7F3FD4FF40050214673
:101650000690002008900548FFF72CFC08B1FEF723
:1016600048FE0248FFF75CFD16B0B0BDBC0000208C
:10167000B0B596B009AC00251C212046CDE9145523
:10168000CDE91255CDE91055FEF7D2FD01A8202174
:10169000FEF7CEFD3048ED49A72244F61F6380E8EF
:1016A0002600C0E90335C0E90555FFF773FC08B112
:1016B000FEF71FFE4FF4805012A912902648FFF744
:1016C000A7FC08B1FEF715FE2348FFF7DAFD08B1C5
:1016D000FEF70FFE002010A9CDE910001E48FFF70D
:1016E00011FC08B1FEF705FE6020142109904FF4AB
:1016F000FA600A9004F10800FEF79AFD16482146A8
:101700000022FFF76FFD08B1FEF7F3FD124809A9AB
:101710000422FFF767FD08B1FEF7EBFD0E4809A9AB
:101720000822FFF75FFD08B1FEF7E3FD01AC1421CD
:101730002046FEF77DFD4FF4005021460690002024
:1017400008900548FFF7B6FB08B1FEF7D2FD024846
:10175000FFF7E6FC16B0B0BDFC00002080B50D48D8
:101760000D4901600D4941604FF4805181604FF493
:101770000051C1604FF4806101610C214161002181
:10178000C0E90611FFF799FD18B1BDE88040FEF7EA
:10179000B0BD80BD3C01002000480040A086010093
:1017A000FEE77047FFF72CB8B0B592B000240225D1
:1017B000CDE90A44CDE9084401941C48016841F090
:1017C00080510160006800F0805001900198019400
:1017D0001748016841F480410160006800F48040CE
:1017E00001900198012006904FF4803007904FF44B
:1017F00080000C950D9006200E90A820CDE90F05D5
:101800000720119006A8FFF78FF90F200521CDE9D9
:1018100001054FF4A050039404904FF480500590BC
:1018200001A8FFF7A3F812B0B0BD00BF40380240D6
:10183000007000400548D0F8801041F47001C0F8F5
:1018400080104FF000610160704700BF08ED00E0BC
:101850000268B0F1804F0ED0264B98421CBF264B39
:10186000984208D0254B98421CBF8C4B984202D01E
:10187000234B984203D14B6822F070021A43B0F117
:10188000804F20D01B4B98421CBF1B4B98421AD054
:101890001A4B98421CBF1B4B984214D01A4B9842CB
:1018A0001CBF1A4B98420ED0154B98421CBF7B4B65
:1018B000984208D0164B98421CBF164B984202D053
:1018C000154B984203D1CB6822F440721A434B69FE
:1018D00022F080021A4302608A68C2620A68826249
:1018E00040F480626D4B9A4204BF09690163012193
:1018F000416170470004004000080040000C0040B7
:101900000000014000180040001C00400020004082
:10191000004001400048014000440140B0B5026A67
:1019200022F001020262026AD0F804E083698D6845
:101930000C6822F00202154323F07302574B42EA6F
:10194000040C40F480629A4201BF25F00C03CC687D
:1019500024F0040444EA0305504B9A4201BFD1E944
:1019600005232EF44074224342EA030EC0F804E03B
:10197000C0F818C0496841630562B0BD70B5026A1D
:1019800022F010020262026A466883698D680C6860
:1019900022F0200242EA051E23F4E6423F4B42EACF
:1019A000042C40F480629A4201BFCB686FF04F0470
:1019B00004EA03132EF0C00508BF43EA050E374BB7
:1019C0009A4201BFD1E9052326F4406444EA820229
:1019D00042EA83064660C0F818C049688163C0F8CF
:1019E00020E070BD70B5026A22F480720262026A61
:1019F0004668C3698D680C6822F4007242EA052EBD
:101A000023F07302254B42EA040C40F480629A42B0
:101A100008D1CB6840F2FF442EF440651B02A3437B
:101A200043EA050E1D4B9A4201BFD1E9052326F476
:101A3000405444EA021242EA03164660C0F81CC051
:101A40004968C163C0F820E070BD00BF00040140D8
:101A5000B0B5026A22F480520262D0F820C0436816
:101A6000D0F81CE08A680D682CF4005444EA023C6B
:101A70000A4C2EF4E64242EA052240F48065A54273
:101A800002BF4D6923F4804343EA85134360C2617A
:101A900049680164C0F820C0B0BD00BF0004014027
:101AA000D0F820C0036A23F001030362836923F0A6
:101AB000F00343EA021282612CF00A021143016230
:101AC0007047036A23F010030362836923F47043B1
:101AD00043EA0232036A826123F0A00242EA011162
:101AE00001627047806B01684A6990F83930212B98
:101AF0000BD112F0800208D00022C284CA6822F002
:101B0000C002CA60202280F839204A6990F83A3031
:101B1000222B0FD112F040020CD00022C285CA68DD
:101B200022F49072CA604A6922F001024A612021BF
:101B300080F83A10C16B41F01001C163FFF7BCBBE4
:101B40000168806B096811F4807F18BFFFF77EBCC5
:101B50000021C1850168CA6822F48072CA604A699E
:101B600022F001024A614A6922F040024A612021C2
:101B700080F83A10FFF76ABC806BFFF7A5BC000045
:101B8000F8B5074649F20C6638680169FA6821F42D
:101B9000405111430161B968D7E90423FC69C56864
:101BA000114325EA0606B4F5004F41EA030141EA74
:101BB000040141EA0601C1604169BA6921F440713A
:101BC00041EA0201416140F4806005D12449884224
:101BD00008D1FEF76BFF07E0214988421FD1FEF7CD
:101BE00065FF1EE0FEF758FF7B681921A0FB01018D
:101BF0005A00DB0FFEF7E4FA64216FF06303B0FBD9
:101C0000F1F202FB0300322303EBC000B0FBF1F161
:101C10004FF4F87000EA410001F0070119E0FEF707
:101C20003BFF7B681921A0FB01019A009B0FFEF787
:101C3000C7FA64216FF06303B0FBF1F202FB03000B
:101C4000322303EB0010B0FBF1F101F0F00001F0E2
:101C50000F0100EB0210084339688860F8BD00BF2F
:101C600000140140FEE7000010B5FEF7CFFDFFF7BE
:101C70009BFDFFF745FCFFF729FCFFF7F9FCFFF799
:101C800079FCFFF76BFD064C06481922211DFFF772
:101C900097FBE08B20600A20FEF7D2FCF9E700BF3B
:101CA000100000203C01002002E008C8121F08C1FB
:101CB000002AFAD170477047002001E001C1121FCD
:101CC000002AFBD170470000000000000000010264
:101CD00003040607080900000000010203040000D5
:101CE000001D00080000002010000000A81C0008D3
:101CF000101D00081000002070210000B81C000812
:101D00000100000010000000000000000024F400AA
:040000050800018965
:00000001FF
